:100000000C946C000C9449080C9422080C94BF07C3
:100010000C945C070C94EB060C9494000C949400E4
:100020000C9494000C9494000C9494000C94940000
:100030000C9494000C9494000C9494000C949400F0
:100040000C9473050C9494000C9441050C941B05BE
:100050000C9494000C9494000C9494000C949400D0
:100060000C94BD050C9494000001020304050607DE
:100070000001020304050001020304050000000062
:10008000240027002A0000000000250028002B0083
:1000900000000000230026002900040404040404D6
:1000A0000404020202020202030303030303010227
:1000B00004081020408001020408102001020408F6
:1000C00010200000000800020100000304070000E7
:1000D000000000000000700811241FBECFEFD8E020
:1000E000DEBFCDBF11E0A0E0B1E0ECE4F3E102C07F
:1000F00005900D92A234B107D9F722E0A2E4B1E055
:1001000001C01D92AD3FB207E1F710E0CCE6D0E0B0
:1001100004C02197FE010E949909CB36D107C9F787
:100120000E94A9080C94A4090C940000CF92DF92BD
:10013000EF92FF920F931F93CF93DF936C017A019D
:100140008B01C0E0D0E0CE15DF0589F0D8016D91BC
:100150008D01D601ED91FC910190F081E02DC60159
:100160000995892B11F47E0102C02196ECCFC701BD
:10017000DF91CF911F910F91FF90EF90DF90CF9083
:100180000895E0914C02F0914D02309729F01092C1
:1001900045021092440209940895CF93DF93AC0175
:1001A000E0914E02F0914F023097F1F090914702AA
:1001B000809146029817C0F090E0292F30E0261772
:1001C000370754F4D901AE5BBE4FEA01C20FD31F0B
:1001D00088818C939F5FF1CF109247026093460213
:1001E000CB01DF91CF910994DF91CF910895FC016C
:1001F000538D448D252F30E0842F90E0821B930B8C
:10020000541710F0CF96089501970895FC01918D31
:10021000828D981761F0828DDF01A80FB11D5D9668
:100220008C91928D9F5F9F73928F90E008958FEFD6
:100230009FEF0895FC01918D828D981731F0828D8A
:10024000E80FF11D858D90E008958FEF9FEF0895E1
:10025000FC01918D228D892F90E0805C9F4F821B45
:1002600091098F739927089584E592E00E942801EF
:1002700021E0892B09F420E0822F0895FC01848D70
:10028000DF01A80FB11DA35ABF4F2C91848D90E0C0
:1002900001968F739927848FA689B7892C93A0899B
:1002A000B1898C9180648C93938D848D981306C052
:1002B0000288F389E02D80818F7D80830895EF92FD
:1002C000FF920F931F93CF93DF93EC0181E0888F10
:1002D0009B8D8C8D981305C0E889F989808185FDF7
:1002E00024C0F62E0B8D10E00F5F1F4F0F731127E8
:1002F000E02E8C8DE8120CC00FB607FCFACFE8890F
:10030000F989808185FFF5CFCE010E943E01F1CFB2
:100310008B8DFE01E80FF11DE35AFF4FF0820B8F2A
:10032000EA89FB898081806207C0EE89FF8960834A
:10033000E889F98980818064808381E090E0DF91A1
:10034000CF911F910F91FF90EF900895CF93DF937E
:10035000EC01888D8823C9F0EA89FB89808185FDBD
:1003600005C0A889B9898C9186FD0FC00FB607FC1E
:10037000F5CF808185FFF2CFA889B9898C9185FF5F
:10038000EDCFCE010E943E01E7CFDF91CF910895DE
:1003900080E090E0892B29F00E94340181110C94B7
:1003A00000000895833081F028F4813099F0823084
:1003B000A1F008958730A9F08830B9F08430D1F4E5
:1003C000809180008F7D03C0809180008F77809323
:1003D0008000089584B58F7702C084B58F7D84BD79
:1003E00008958091B0008F7703C08091B0008F7D19
:1003F0008093B0000895CF93DF93282F30E0F90168
:10040000EE53FF4F8491F901E255FF4FD491F9016A
:10041000E656FF4FC491CC2391F081110E94D20186
:10042000EC2FF0E0EE0FFF1FE057FF4FA591B491C6
:10043000EC91ED2381E090E021F480E002C080E0C7
:1004400090E0DF91CF9108951F93CF93DF93282FF2
:1004500030E0F901EE53FF4F8491F901E255FF4F6F
:10046000D491F901E656FF4FC491CC23C9F0162F61
:1004700081110E94D201EC2FF0E0EE0FFF1FEA572E
:10048000FF4FA591B4918FB7F894111105C09C91BD
:10049000ED2FE095E92302C0EC91ED2BEC938FBF9B
:1004A000DF91CF911F910895CF93DF9390E0FC01EE
:1004B000E255FF4F2491FC01E656FF4F84918823BB
:1004C00061F190E0880F991FFC01E458FF4FC5913E
:1004D000D491FC01EA57FF4FA591B491611109C075
:1004E0009FB7F8948881209582238883EC912E23EE
:1004F0000BC0623061F49FB7F8943881822F8095E9
:1005000083238883EC912E2B2C939FBF06C08FB73B
:10051000F894E8812E2B28838FBFDF91CF91089527
:100520003FB7F8948091390290913A02A0913B0232
:10053000B0913C0226B5A89B05C02F3F19F001964B
:10054000A11DB11D3FBFBA2FA92F982F8827820F59
:10055000911DA11DB11DBC01CD0142E0660F771FA9
:10056000881F991F4A95D1F708958091360290917E
:100570003702181619060CF06DC083B78E7F83BF43
:1005800060E08DE00E942402109237021092360241
:100590002FB7F894ECEBF0E08491E8EAF0E0E49116
:1005A000E230E1F490916B00E82FE0958E2F8923E3
:1005B00080936B0080916B00811105C08091680071
:1005C0008E7F80936800809135028E238093350260
:1005D00080913402E823E09334023BC0E330E1F43D
:1005E00090916C00E82FE0958E2F892380936C000A
:1005F00080916C00811105C0809168008D7F80938F
:100600006800809133028E238093330280913202FE
:10061000E823E09332021DC0E430D9F490916D00DC
:10062000E82FE0958E2F892380936D0080916D00D7
:10063000811105C0809168008B7F80936800809154
:1006400031028E238093310280913002E823E093BF
:1006500030022FBF8091360290913702019690931D
:10066000370280933602089585ED8093BC00809117
:10067000BC0084FDFCCF109243020895409182019A
:10068000262F30E0240F311D21323105DCF420917A
:1006900043022430C9F4FC0180E090E0861758F44E
:1006A000309182012191DC01AE59BE4FA30FB11DE3
:1006B0002C930196F3CF80918201680F60938201A1
:1006C00080E0089581E0089582E008950895E09122
:1006D000470280914602E81730F4F0E0EE5BFE4FEF
:1006E000808190E008958FEF9FEF089590914702E9
:1006F00080914602981750F4E92FF0E0EE5BFE4F30
:10070000208130E09F5F9093470202C02FEF3FEFC0
:10071000C901089581EF92E00E9476038F3691051A
:1007200009F090C061E08DE00E94240283B7817FD0
:10073000846083BF83B7816083BF109237021092B9
:100740003602ECEBF0E09491E8EAF0E0849182303C
:1007500031F420913502292B209335020FC08330CC
:1007600031F420913302292B2093330207C08430C7
:1007700029F420913102292B20933102E6E7F0E0A1
:10078000A4918230D1F4B0E0AA0FBB1FAC5DBD4F85
:1007900025EB32E02D933C93E4E9F0E0A591B49190
:1007A0008C91809323022BE630E030932202209339
:1007B000210280916800816037C08330D1F4B0E0BD
:1007C000AA0FBB1FAB5EBD4F25EB32E02D933C93D0
:1007D000E6E9F0E0A591B4918C91809314022CE6A7
:1007E00030E03093220220932102809168008260E1
:1007F0001BC08430D9F4B0E0AA0FBB1FAC5FBD4F63
:1008000025EB32E02D933C93E8E9F0E0A591B4911B
:100810008C91809303022DE630E0309322022093E6
:10082000210280916800846080936800A091210279
:10083000B0912202EC919E2B9C937894889583B77B
:100840008E7F83BF08958091460290E020914702F9
:10085000821B91090895CF93DF9300D0CDB7DEB707
:10086000CB01642F49835A830E943E034981842F20
:100870005A81952F0F900F90DF91CF9108955F923D
:100880006F927F928F929F92AF92BF92CF92DF92A0
:10089000EF92FF920F931F93CF93DF93CDB7DEB705
:1008A00060970FB6F894DEBF0FBECDBF90E0E92E83
:1008B00091E0F92E29ECC22E21E0D22E512C10E02D
:1008C000570160E0F70180810E94240282E1882EB6
:1008D00081E0982E360100E08FEF800FF401823026
:1008E000E0F480818E3008F08E50877080648093B1
:1008F0007C0080917A00806480937A0080917A00F5
:1009000086FDFCCF809178002091790090E0922BB9
:1009100021E0883C91054CF006C080810E94FB01DB
:1009200021E0892B11F020E00EC0F30180818111BC
:100930000AC0E1E0F0E0EC0FFD1FE10FF11D802F98
:10094000850D80831F5FF30120830F5FF9E06F0E39
:10095000711C82E0880E911C063009F0BDCFE2E0E8
:10096000EE0EF11C61E0F50180810E942402F6E0A8
:100970005F0E8FEFC81AD80AE6E35E12A1CF8EE0B1
:100980000E94FB0121E0892B11F020E00DC0809135
:100990000802811109C0E1E0F0E0EC0FFD1FE10F5A
:1009A000F11D8FE380831F5F20930802812F90E069
:1009B00020E8803191054CF4E1E0F0E0EC0FFD1F00
:1009C000E80FF91F20830196F4CF40E150E0BE010B
:1009D0006F5F7F4F81EF92E00E942B0460960FB60D
:1009E000F894DEBF0FBECDBFDF91CF911F910F9165
:1009F000FF90EF90DF90CF90BF90AF909F908F903F
:100A00007F906F905F900895CF93DF931F92CDB743
:100A1000DEB7698361E0CE0101960E943E0381E06A
:100A200090E00F90DF91CF910895089580E090E0DD
:100A300008950E949F091F920F920FB60F921124E2
:100A40002F933F934F935F936F937F938F939F93D6
:100A5000AF93BF93EF93FF9384E592E00E943E0132
:100A6000FF91EF91BF91AF919F918F917F916F9186
:100A70005F914F913F912F910F900FBE0F901F905C
:100A800018951F920F920FB60F9211242F938F93E8
:100A90009F93EF93FF93E0916402F0916502808150
:100AA000E0916A02F0916B0282FD12C09081809108
:100AB0006D028F5F8F7320916E02821751F0E0916B
:100AC0006D02F0E0EC5AFD4F958F80936D0201C0EE
:100AD0008081FF91EF919F918F912F910F900FBE89
:100AE0000F901F9018951F920F920FB60F9211241E
:100AF0002F933F938F939F93AF93BF9380913D022A
:100B000090913E02A0913F02B09140023091380294
:100B100023E0230F2D3720F40196A11DB11D05C040
:100B200026E8230F0296A11DB11D20933802809361
:100B30003D0290933E02A0933F02B0934002809109
:100B4000390290913A02A0913B02B0913C02019689
:100B5000A11DB11D8093390290933A02A0933B02EC
:100B6000B0933C02BF91AF919F918F913F912F9194
:100B70000F900FBE0F901F9018951F920F920FB6F7
:100B80000F9211242F933F934F935F936F937F9313
:100B90008F939F93AF93BF93EF93FF938091B9008F
:100BA000887F803609F49CC068F5883209F45BC000
:100BB00090F4803109F454C038F4882309F4F6C065
:100BC000883009F44DC0F6C0883109F44CC0803239
:100BD00009F45DC0EFC0803409F468C048F4803384
:100BE00009F455C0883309F0E5C08093A501D8C049
:100BF000803509F44FC0883509F45DC0883409F0A8
:100C0000D9C0D6C0883909F4C7C0A8F4883709F418
:100C100067C038F4883609F463C0803709F460C0CF
:100C2000C9C0883809F4B8C0803909F45FC0803879
:100C300009F0C0C05BC0803B09F486C038F4803A3C
:100C400009F466C0883A09F47FC0B4C0803C09F456
:100C5000A7C0883C09F4A4C0883B09F48AC0AAC094
:100C60008091C80110C09091C7018091C60198176A
:100C700070F5E091C70181E08E0F8093C701F0E02D
:100C8000EA55FE4F80818093BB0085EC86C080933F
:100C9000A5018EC0E091C70181E08E0F8093C7014E
:100CA0008091BB00F0E0EA55FE4F80839091C70130
:100CB0008091C6016EC0E091C70181E08E0F8093E4
:100CC000C7018091BB00F0E0EA55FE4F8083809120
:100CD000420281116DC081E08093410284EA61C0CB
:100CE00083E0809343021092A401CFCF8091A401AE
:100CF000803208F051C0E091A40181E08E0F809312
:100D0000A4018091BB00F0E0EC57FE4F8083BDCF83
:100D100085EC8093BC00109243028091A401803244
:100D200030F4E091A401F0E0EC57FE4F10826091A6
:100D3000A40170E0E0914802F091490284E891E05A
:100D400009951092A40136C084E08093430210926A
:100D5000830110928201E0914A02F0914B020995C1
:100D600080918201811105C081E0809382011092FF
:100D70006201E091830181E08E0F80938301F0E0B6
:100D8000EE59FE4F80818093BB009091830180914A
:100D90008201981708F479CF85E88093BC000AC0D7
:100DA00085EC8093BC001092430204C01092A50110
:100DB0000E943403FF91EF91BF91AF919F918F916A
:100DC0007F916F915F914F913F912F910F900FBE47
:100DD0000F901F9018951F920F920FB60F9211242B
:100DE0002F933F934F935F936F937F938F939F9333
:100DF000AF93BF93CF93EF93FF9329B1C0910302B9
:100E00009091310280913002322F309583239223CA
:100E1000892B90916D00C227C923C8232093030218
:100E2000CC23C1F1C0FF05C0E0910402F09105029E
:100E30000995C1FF05C0E0910602F09107020995EE
:100E4000C2FF05C0E0910802F09109020995C3FFB5
:100E500005C0E0910A02F0910B020995C4FF05C09C
:100E6000E0910C02F0910D020995C5FF05C0E091DB
:100E70000E02F0910F020995C6FF05C0E091100225
:100E8000F09111020995C7FF05C0E0911202F0919F
:100E900013020995FF91EF91CF91BF91AF919F916F
:100EA0008F917F916F915F914F913F912F910F9013
:100EB0000FBE0F901F9018951F920F920FB60F92B2
:100EC00011242F933F934F935F936F937F938F934F
:100ED0009F93AF93BF93CF93EF93FF9326B1C091AE
:100EE00014029091330280913202322F3095832385
:100EF0009223892B90916C00C227C923C823209389
:100F00001402CC2351F1C0FF05C0E0911502F0910D
:100F100016020995C1FF05C0E0911702F091180271
:100F20000995C2FF05C0E0911902F0911A020995D6
:100F3000C3FF05C0E0911B02F0911C020995C4FF9C
:100F400005C0E0911D02F0911E020995C5FF05C084
:100F5000E0911F02F09120020995FF91EF91CF914E
:100F6000BF91AF919F918F917F916F915F914F91C1
:100F70003F912F910F900FBE0F901F9018951F92C9
:100F80000F920FB60F9211242F933F934F935F93BD
:100F90006F937F938F939F93AF93BF93CF93EF9371
:100FA000FF9323B1C09123029091350280913402C6
:100FB000322F309583239223892B90916B00C22787
:100FC000C923C82320932302CC2351F1C0FF05C0BD
:100FD000E0912402F09125020995C1FF05C0E0913E
:100FE0002602F09127020995C2FF05C0E091280270
:100FF000F09129020995C3FF05C0E0912A02F09102
:101000002B020995C4FF05C0E0912C02F0912D023E
:101010000995C5FF05C0E0912E02F0912F020995B8
:10102000FF91EF91CF91BF91AF919F918F917F9160
:101030006F915F914F913F912F910F900FBE0F9045
:101040001F9018951F920F920FB60F9211242F9395
:101050003F934F935F936F937F938F939F93AF9340
:10106000BF93EF93FF93E0910102F0910202099583
:10107000FF91EF91BF91AF919F918F917F916F9170
:101080005F914F913F912F910F900FBE0F901F9046
:1010900018951F920F920FB60F9211242F933F9322
:1010A0004F935F936F937F938F939F93AF93BF9370
:1010B000EF93FF93E091FF01F09100020995FF91FA
:1010C000EF91BF91AF919F918F917F916F915F91C0
:1010D0004F913F912F910F900FBE0F901F90189539
:1010E000E4E5F2E01382128288EE93E0A0E0B0E043
:1010F00084839583A683B78322E231E03183208302
:1011000025EC30E03587248724EC30E037872687CC
:1011100020EC30E0318B208B21EC30E0338B228BC4
:1011200022EC30E0358B248B26EC30E0378B268B9D
:10113000118E128E138E148EE1EFF2E01382128262
:1011400084839583A683B78384E391E0918380832E
:101150000895789484B5826084BD84B5816084BD2F
:1011600085B5826085BD85B5816085BD80916E0045
:10117000816080936E001092810080918100826076
:1011800080938100809181008160809381008091B3
:1011900080008160809380008091B10084608093A2
:1011A000B1008091B00081608093B00080917A009E
:1011B000846080937A0080917A00826080937A00C4
:1011C00080917A00816080937A0080917A008068B3
:1011D00080937A001092C1002FB7F89480913D025D
:1011E00090913E02A0913F02B09140022FBF8093A8
:1011F000500290935102A0935202B093530280E1A7
:101200008093BA0081EC90E090934B0280934A0265
:101210008DEC90E09093490280934802109247022F
:10122000109246021092450210924402109243021C
:1012300081E0809342021092410261E082E10E94CB
:10124000240261E083E10E9424028091B9008E7F34
:101250008093B9008091B9008D7F8093B90088E4B4
:101260008093B80085E48093BC008FE394E0909372
:101270004D0280934C028AE893E090934F02809352
:101280004E02C2E1D1E08881229662E00E945402BF
:1012900021E0CE31D207B9F7C0E0D1E0F880229644
:1012A00061E08F2D0E94540261E08F2D0E94240284
:1012B00081E0C231D80791F762E08EE00E945402CB
:1012C00061E08AE00E94540260E08AE00E94240209
:1012D00061E08DE00E94540260E08DE00E942402F3
:1012E0000E9490024B015C0184E6C82ED12CE12CB7
:1012F000F12C0E949002DC01CB0188199909AA09FE
:10130000BB09883E9340A105B10558F021E0C21AFF
:10131000D108E108F10888EE880E83E0981EA11C30
:10132000B11CC114D104E104F10419F70E94C801F1
:10133000D7CFEE0FFF1F0590F491E02D099481E0C7
:0C13400090E0F8940C94A409F894FFCFFE
:10134C00020003000400050006000700100008005E
:10135C0009000F00140015000B000C001100000018
:10136C0000005F019600F700A601280106011A0192
:10137C000000000004052B04160566032304760305
:02138C006703F5
:107800000C94343C0C94513C0C94513C0C94513CE1
:107810000C94513C0C94513C0C94513C0C94513CB4
:107820000C94513C0C94513C0C94513C0C94513CA4
:107830000C94513C0C94513C0C94513C0C94513C94
:107840000C94513C0C94513C0C94513C0C94513C84
:107850000C94513C0C94513C0C94513C0C94513C74
:107860000C94513C0C94513C11241FBECFEFD8E036
:10787000DEBFCDBF11E0A0E0B1E0ECE9FFE702C060
:1078800005900D92A230B107D9F712E0A2E0B1E065
:1078900001C01D92AD30B107E1F70E942D3D0C945F
:1078A000CC3F0C94003C982F959595959595959582
:1078B000905D8F708A307CF0282F295A8091C0000B
:1078C00085FFFCCF9093C6008091C00085FFFCCF60
:1078D0002093C6000895282F205DF0CF982F809127
:1078E000C00085FFFCCF9093C6000895EF92FF92F1
:1078F0000F931F93EE24FF2487018091C00087FD22
:1079000017C00894E11CF11C011D111D81E4E8164B
:1079100082E4F8068FE0080780E0180770F3E09132
:107920000401F091050109958091C00087FFE9CF1E
:107930008091C6001F910F91FF90EF9008950E94D3
:10794000763C982F8091C00085FFFCCF9093C600B5
:1079500091362CF490330CF09053892F089597555D
:10796000892F08951F930E949F3C182F0E949F3CCF
:107970001295107F810F1F9108951F93182F882350
:1079800021F00E94763C1150E1F71F9108951F935A
:10799000182F0E94763C803249F0809103018F5F5E
:1079A000809303018530C1F01F9108958091C0003C
:1079B00085FFFCCF84E18093C6008091C00085FFE5
:1079C000FCCF1093C6008091C00085FFFCCF80E102
:1079D0008093C6001F910895E0910401F091050184
:1079E00009951F9108950E94763C803241F0809164
:1079F00003018F5F80930301853081F008958091AA
:107A0000C00085FFFCCF84E18093C6008091C00058
:107A100085FFFCCF80E18093C6000895E0910401CA
:107A2000F09105010995089540E951E08823A1F0FE
:107A30002D9A28EE33E0FA013197F1F721503040CA
:107A4000D1F72D9828EE33E0FA013197F1F7215064
:107A50003040D1F7815061F708953F924F925F9285
:107A60006F927F928F929F92AF92BF92CF92DF924E
:107A7000EF92FF920F931F93CF93DF93000080E16B
:107A80008093C4001092C50088E18093C10086E015
:107A90008093C2005098589A259A81E00E94143D24
:107AA00024E1F22E9EE1E92E85E9D82E0FE0C02ECA
:107AB00010E1B12EAA24A394B1E49B2EA6E58A2E50
:107AC000F2E57F2EE0E26E2E79E4572E63E5462E36
:107AD00050E5352E0E94763C8033B1F18133B9F107
:107AE000803409F46FC0813409F476C0823409F41B
:107AF00085C0853409F488C0803531F1823521F1A3
:107B0000813511F1853509F485C0863509F48DC0BC
:107B1000843609F496C0843709F403C1853709F423
:107B200072C1863709F466C0809103018F5F80932C
:107B30000301853079F6E0910401F0910501099582
:107B40000E94763C803351F60E94F33CC3CF0E94E2
:107B5000763C803249F78091C00085FFFCCFF092DF
:107B6000C6008091C00085FFFCCF9092C600809136
:107B7000C00085FFFCCF8092C6008091C00085FFC9
:107B8000FCCF7092C6008091C00085FFFCCF609250
:107B9000C6008091C00085FFFCCF5092C600809146
:107BA000C00085FFFCCF4092C6008091C00085FFD9
:107BB000FCCF3092C6008091C00085FFFCCFB09210
:107BC000C60088CF0E94763C863808F4BDCF0E945C
:107BD000763C0E94F33C7ECF0E94763C803809F4CC
:107BE0009CC0813809F40BC1823809F43CC1883942
:107BF00009F48FC080E00E94C73C6CCF84E10E94F2
:107C0000BD3C0E94F33C66CF85E00E94BD3C0E94D3
:107C1000F33C60CF0E94763C809306010E94763C44
:107C2000809307010E94F33C55CF0E94763C80333D
:107C300009F41DC183E00E94BD3C80E00E94C73C66
:107C400049CF0E94763C809309020E94763C809343
:107C5000080280910C028E7F80930C020E94763C79
:107C6000853409F415C18091080290910902892B8D
:107C700089F000E010E00E94763CF801E85FFE4FDA
:107C800080830F5F1F4F80910802909109020817AF
:107C9000190788F30E94763C803209F045CF809125
:107CA0000C0280FF01C16091060170910701660F0F
:107CB000771F7093070160930601A0910802B091AD
:107CC00009021097C9F0E8E0F1E09B01AD014E0F09
:107CD0005F1FF999FECF32BD21BD819180BDFA9A17
:107CE000F99A2F5F3F4FE417F50799F76A0F7B1F4B
:107CF00070930701609306018091C00085FFFCCF5F
:107D0000F092C6008091C00085FFFCCFB092C60003
:107D1000E1CE83E00E94C73CDDCE82E00E94C73CFA
:107D2000D9CE0E94763C809309020E94763C8093D3
:107D300008028091060190910701880F991F909386
:107D40000701809306010E94763C853409F4A6C0A1
:107D500080910C028E7F80930C020E94763C8032D0
:107D600009F0B8CE8091C00085FFFCCFF092C6002C
:107D7000609108027091090261157105B9F140E046
:107D800050E080910C02A82FA170B82FB27011C0E2
:107D9000BB2309F45CC0E0910601F0910701319624
:107DA000F0930701E09306014F5F5F4F46175707B7
:107DB000E8F4AA2369F3F999FECF209106013091E6
:107DC000070132BD21BDF89A90B58091C00085FFB2
:107DD000FCCF9093C6002F5F3F4F30930701209355
:107DE00006014F5F5F4F4617570718F38091C00099
:107DF00085FDE5CE8091C00085FFF8CFE0CE81E023
:107E00000E94C73C67CE0E94763C803209F08CCE3F
:107E10008091C00085FFFCCFF092C6008091C00029
:107E200085FFFCCFE092C6008091C00085FFFCCFAB
:107E3000D092C6008091C00085FFFCCFC092C600E2
:107E40008091C00085FFFCCFB092C60043CEE09188
:107E50000601F091070194918091C00085FFFCCF4D
:107E60009093C6009CCF80E10E94C73C33CE0E9415
:107E7000763C0E94763C182F0E94763C112309F430
:107E800083C0113009F484C08FE00E94C73C22CE29
:107E900080910C02816080930C02E5CE80910C02EF
:107EA000816080930C0259CF809107018823880F4D
:107EB000880B8A2180930B02809106019091070123
:107EC000880F991F90930701809306018091080203
:107ED00080FF09C080910802909109020196909359
:107EE000090280930802F894F999FECF1127E091D6
:107EF0000601F0910701C8E0D1E08091080290915D
:107F00000902103091F40091570001700130D9F34B
:107F100003E000935700E89500915700017001308D
:107F2000D9F301E100935700E89509901990009169
:107F3000570001700130D9F301E000935700E89534
:107F40001395103498F011270091570001700130FB
:107F5000D9F305E000935700E895009157000170B0
:107F60000130D9F301E100935700E895329602976A
:107F700009F0C7CF103011F00296E5CF112480919F
:107F8000C00085FFB9CEBCCE8EE10E94C73CA2CD19
:0C7F900085E90E94C73C9ECDF894FFCF0D
:027F9C00800063
:040000030000780081
:00000001FF