:100000000C9462000C948A000C948A000C948A0070
:100010000C948A000C948A000C948A000C948A0038
:100020000C948A000C948A000C948A000C948A0028
:100030000C948A000C948A000C948A000C948A0018
:100040000C9409040C948A000C94D7030C94B1030B
:100050000C948A000C948A000C948A000C948A00F8
:100060000C948A000C948A000000000024002700F1
:100070002A0000000000250028002B0000000000DE
:1000800023002600290004040404040404040202DA
:100090000202020203030303030301020408102007
:1000A0004080010204081020010204081020000012
:1000B0000008000201000003040700000000000027
:1000C0000000530411241FBECFEFD8E0DEBFCDBF28
:1000D00022E0ACE5B1E001C01D92AC38B207E1F717
:1000E00011E0A0E0B1E0E2E7F6E102C005900D9278
:1000F000AC35B107D9F710E0C2E6D0E004C02197D3
:10010000FE010E942509C136D107C9F70E94920459
:100110000C94370B0C940000E3EAF1E0A089B1895C
:1001200082E08C93A485B5851C92A685B7858FEC5B
:100130008C93108EA489B58986E08C93A289B389AB
:100140008C9180618C93A289B3898C9188608C9307
:10015000A289B3898C9180688C930288F389E02D01
:1001600080818F7D80830895CF92DF92EF92FF92FE
:100170000F931F93CF93DF936C017A018B01C0E043
:10018000D0E0CE15DF0589F0D8016D918D01D60143
:10019000ED91FC910190F081E02DC6010995892B2C
:1001A00011F47E0102C02196ECCFC701DF91CF91FF
:1001B0001F910F91FF90EF90DF90CF900895FC0179
:1001C000918D828D981761F0828DDF01A80FB11D8E
:1001D0005D968C91928D9F5F9F73928F90E00895B2
:1001E0008FEF9FEF0895FC01918D828D981731F06C
:1001F000828DE80FF11D858D90E008958FEF9FEFC0
:100200000895FC01918D228D892F90E0805C9F4F95
:10021000821B91098F739927089583EA91E00E94C8
:10022000010121E0892B09F420E0822F0895FC01CF
:10023000848DDF01A80FB11DA35ABF4F2C91848D6F
:1002400090E001968F739927848FA689B7892C93A4
:10025000A089B1898C9180648C93938D848D98133F
:1002600006C00288F389E02D80818F7D8083089508
:10027000EF92FF920F931F93CF93DF93EC0181E0F6
:10028000888F9B8D8C8D981305C0E889F9898081B2
:1002900085FD24C0F62E0B8D10E00F5F1F4F0F73EE
:1002A0001127E02E8C8DE8120CC00FB607FCFACF98
:1002B000E889F989808185FFF5CFCE010E94170179
:1002C000F1CF8B8DFE01E80FF11DE35AFF4FF08255
:1002D0000B8FEA89FB898081806207C0EE89FF89E4
:1002E0006083E889F98980818064808381E090E07F
:1002F000DF91CF911F910F91FF90EF900895CF93D1
:10030000DF93EC01888D8823C9F0EA89FB8980811D
:1003100085FD05C0A889B9898C9186FD0FC00FB6EF
:1003200007FCF5CF808185FFF2CFA889B9898C9130
:1003300085FFEDCFCE010E941701E7CFDF91CF916E
:10034000089580E090E0892B29F00E940D01811131
:100350000C9400000895833081F028F4813099F0E6
:100360008230A1F008958730A9F08830B9F0843048
:10037000D1F4809180008F7D03C0809180008F77C1
:1003800080938000089584B58F7702C084B58F7DF7
:1003900084BD08958091B0008F7703C08091B00034
:1003A0008F7D8093B00008951F93CF93DF93282F04
:1003B00030E0F901E255FF4F8491F901E656FF4F15
:1003C000D491F901EA57FF4FC491CC23C9F0162FFD
:1003D00081110E94AB01EC2FF0E0EE0FFF1FEE58F1
:1003E000FF4FA591B4918FB7F894111105C09C915E
:1003F000ED2FE095E92302C0EC91ED2BEC938FBF3C
:10040000DF91CF911F910895CF93DF9390E0FC018E
:10041000E656FF4F2491FC01EA57FF4F8491882351
:1004200061F190E0880F991FFC01E859FF4FC591D9
:10043000D491FC01EE58FF4FA591B491611109C010
:100440009FB7F8948881209582238883EC912E238E
:100450000BC0623061F49FB7F8943881822F809589
:1004600083238883EC912E2B2C939FBF06C08FB7DC
:10047000F894E8812E2B28838FBFDF91CF910895C8
:100480003FB7F8948091610190916201A09163015E
:10049000B091640126B5A89B05C02F3F19F00196C5
:1004A000A11DB11D3FBFBA2FA92F982F8827820FFA
:1004B000911DA11DB11DBC01CD0142E0660F771F4A
:1004C000881F991F4A95D1F708958F929F92AF92F6
:1004D000BF92CF92DF92EF92FF926B017C010E945C
:1004E00040024B015C01C114D104E104F104F1F0BC
:1004F0000E944002DC01CB0188199909AA09BB09B5
:10050000883E9340A105B10570F321E0C21AD108DD
:10051000E108F10888EE880E83E0981EA11CB11C4A
:10052000C114D104E104F10419F7DDCFFF90EF907D
:10053000DF90CF90BF90AF909F908F9008952FB78E
:10054000F89460915D0170915E0180915F019091DE
:1005500060012FBF08950F931F9381111BC00E944C
:100560009F02009142021091430220914402309177
:100570004502DC01CB01801B910BA20BB30B8197D1
:10058000A105B10538F463E070E080E090E00E94DE
:100590006502E5CF0E949F0260934202709343027E
:1005A000809344029093450281E01F910F9108953A
:1005B0000E94220B6115710579F0FB01019000206A
:1005C000E9F73197AF01461B570BDC01ED91FC9128
:1005D0000280F381E02D099480E090E00895CF93AC
:1005E000DF93C0918202D091830266E271E0CE0176
:1005F0000E94DA0269E571E0CE01DF91CF910C949F
:10060000DA024F925F926F927F92EF92FF920F9376
:100610001F93CF93DF93CDB7DEB7A1970FB6F894B2
:10062000DEBF0FBECDBF7C01FA01CB0119A2223083
:1006300008F42AE08E010F5D1F4F422E512C612CD1
:10064000712CBF01A30192010E94CC08F901CA01DB
:10065000015011096A3014F4605D01C0695CD80171
:100660006C93232B242B252B61F7B801C7010E9423
:10067000DA02A1960FB6F894DEBF0FBECDBFDF91B0
:10068000CF911F910F91FF90EF907F906F905F90AF
:100690004F9008950C94DA02BF92CF92DF92EF92BE
:1006A000FF920F931F93CF93DF93B82E0E949F0268
:1006B0006B017C0100E412E0C2E8D2E06DE271E07F
:1006C000888199810E944A034B2D50E060E070E0E0
:1006D0002AE0888199810E94010364E371E08881A6
:1006E00099810E944A032AE0B701A6018881998175
:1006F0000E94010366E371E0888199810E944A03A8
:10070000F80186819781A085B185B701A601481BB4
:10071000590B6A0B7B0B2AE0888199810E940103A7
:1007200066E371E0888199810E944A03F80146815D
:1007300057816085718582859385A485B585481B21
:10074000590B6A0B7B0B2AE088819981DF91CF914D
:100750001F910F91FF90EF90DF90CF90BF900C947E
:1007600001031F920F920FB60F9211242F933F9304
:100770004F935F936F937F938F939F93AF93BF93A9
:10078000EF93FF9383EA91E00E941701FF91EF91AD
:10079000BF91AF919F918F917F916F915F914F9199
:1007A0003F912F910F900FBE0F901F9018951F92A1
:1007B0000F920FB60F9211242F938F939F93EF9365
:1007C000FF93E091B301F091B4018081E091B90110
:1007D000F091BA0182FD12C090818091BC018F5FBF
:1007E0008F732091BD01821751F0E091BC01F0E0C0
:1007F000ED55FE4F958F8093BC0101C08081FF9124
:10080000EF919F918F912F910F900FBE0F901F909E
:1008100018951F920F920FB60F9211242F933F93AA
:100820008F939F93AF93BF9380915D0190915E01F1
:10083000A0915F01B091600130915C0123E0230F32
:100840002D3720F40196A11DB11D05C026E8230F08
:100850000296A11DB11D20935C0180935D019093D0
:100860005E01A0935F01B09360018091610190915E
:100870006201A0916301B09164010196A11DB11DB7
:100880008093610190936201A0936301B09364012E
:10089000BF91AF919F918F913F912F910F900FBE7C
:1008A0000F901F901895E3EAF1E01382128288EE10
:1008B00093E0A0E0B0E084839583A683B7838AE1C8
:1008C00091E09183808385EC90E09587848784EC28
:1008D00090E09787868780EC90E0918B808B81EC0D
:1008E00090E0938B828B82EC90E0958B848B86ECEE
:1008F00090E0978B868B118E128E138E148EE0E40F
:10090000F2E01682178210861186128613861486EC
:10091000158616861786108A118A128A138A148AF7
:10092000158A0895CF93DF93CDB7DEB762970FB6E0
:10093000F894DEBF0FBECDBF789484B5826084BDCD
:1009400084B5816084BD85B5826085BD85B58160D3
:1009500085BD80916E00816080936E001092810051
:10096000809181008260809381008091810081600C
:1009700080938100809180008160809380008091CD
:10098000B10084608093B1008091B0008160809359
:10099000B00080917A00846080937A0080917A0020
:1009A000826080937A0080917A00816080937A00DF
:1009B00080917A00806880937A001092C100109232
:1009C0008402109285021092860210928702109281
:1009D000420210924302109244021092450260EDCE
:1009E00077E080E090E00E94650283EA91E09093D6
:1009F0008302809382020E948C000E949F02609377
:100A0000420270934302809344029093450268E34C
:100A100071E080918202909183020E944A036AE011
:100A200070E080E090E00E94650281E080935602D1
:100A30000E948C0010E062E0812F0E9404021F5F80
:100A40001630C9F794EFC92EDD24D394E12CF12C94
:100A5000CE0101969B878A870E949F02672B682B95
:100A6000692B41F40E949F02623071058105910556
:100A700008F499C00E949F0260939F017093A001A7
:100A80008093A1019093A20100919B0110919C0180
:100A900020919D0130919E01601771078207930795
:100AA00040F460939B0170939C0180939D0190930F
:100AB0009E0100919B0110919C0120919D0130911C
:100AC0009E014B015C01801A910AA20AB30A9501AA
:100AD00084010A3F11052105310508F464C06093C3
:100AE0009B0170939C0180939D0190939E01C09205
:100AF0004E02D0924F02E0925002F09251021092B8
:100B00005202109253021092540210925502809198
:100B1000460290914702A0914802B0914902809309
:100B20004A0290934B02A0934C02B0934D020E9454
:100B30009F0260934602709347028093480290930D
:100B400049020E949F026093420270934302809385
:100B500044029093450281E00E944C036AE471E0F4
:100B600080918202909183020E944A030E949F0218
:100B7000AB01BC012AE080918202909183020E9425
:100B800001030E94EF0262E070E080E090E00E94CA
:100B900065020E949F026093460270934702809311
:100BA0004802909349028CE091E0988B8F87412C0A
:100BB000512C3201C0924E02D0924F02E09250026C
:100BC000F09251021092520210925302109254026B
:100BD000109255028091460290914702A0914802DE
:100BE000B091490280934A0290934B02A0934C0229
:100BF000B0934D020E949F02609346027093470299
:100C0000809348029093490280E00E94AB028823BF
:100C1000B1F083E00E944C036AE471E080918202AB
:100C2000909183020E944A032AE0B301A2018091BD
:100C30008202909183020E9401030E94EF0262E00F
:100C400070E080E090E00E9465020E949F02609345
:100C50004602709347028093480290934902AF8501
:100C6000B8891C9161E0812F0E94040260E0812F0D
:100C70000E94D401F201EB59FE4F1F0186E091E082
:100C80009E878D87812C912C5401C0924E02D09268
:100C90004F02E0925002F0925102109252021092D2
:100CA0005302109254021092550280914602909184
:100CB0004702A0914802B091490280934A02909362
:100CC0004B02A0934C02B0934D020E949F0260938E
:100CD000460270934702809348029093490280E055
:100CE0000E94AB028823B1F082E00E944C036AE4C8
:100CF00071E080918202909183020E944A032AE06F
:100D0000B501A40180918202909183020E940103A7
:100D10000E94EF0262E070E080E090E00E946502D5
:100D20000E949F026093460270934702809348029C
:100D3000909349028FEF880D823000F5AD85BE8516
:100D40008C918E3008F08E508770806480937C0088
:100D500080917A00806480937A0080917A0086FD89
:100D6000FCCF809178002091790090E0922BB1E047
:100D7000BC87893C910534F51C8624C0ED85FE8531
:100D8000208130E0F901E255FF4F8491F901E656E8
:100D9000FF4F1491F901EA57FF4F0491002379F0B6
:100DA00081110E94AB01E02FF0E0EE0FFF1FE4582D
:100DB000FF4FA591B491EC911E2381E009F480E0EE
:100DC00081708C87C0924E02D0924F02E092500206
:100DD000F092510210925202109253021092540259
:100DE000109255028091460290914702A0914802CC
:100DF000B091490280934A0290934B02A0934C0217
:100E0000B0934D020E949F02609346027093470286
:100E1000809348029093490280E00E94AB028823AD
:100E2000C9F085E00E944C036AE471E0809182027F
:100E3000909183020E944A03FC854F2F50E060E0AE
:100E400070E02AE080918202909183020E94010367
:100E50000E94EF0262E070E080E090E00E94650294
:100E60000E949F026093460270934702809348025B
:100E7000909349022C85222309F431C1D1018C9130
:100E800081112DC142E0BE016F5F7F4F80E090E095
:100E90000E94A208EA85FB8501900020E9F73197BE
:100EA000AF018A859B85481B590BBA016F5F7F4F45
:100EB00080E090E0498B5A8B0E94580A8C01498946
:100EC0005A89009761F0DC011C92BE016F5F7F4F71
:100ED000498B5A8B0E94300B49895A8902C040E0E5
:100EE00050E0B80183EA91E00E94B40069E571E046
:100EF00083EA91E00E94DA02C8010E94C009C09210
:100F00004E02D0924F02E0925002F09251021092A3
:100F10005202109253021092540210925502809184
:100F2000460290914702A0914802B09149028093F5
:100F30004A0290934B02A0934C02B0934D020E9440
:100F40009F026093460270934702809348029093F9
:100F5000490262E070E080E090E00E9465026AE091
:100F600070E080E090E00E946502B5E6B093570221
:100F700080915702833609F4A8C0853699F580918F
:100F8000520290915302A0915402B09155020196E1
:100F9000A11DB11D8093520290935302A09354025D
:100FA000B093550240914E0250914F026091500211
:100FB00070915102452B462B472B21F4892B8A2B0C
:100FC0008B2B81F480E00E94AB02882329F084E01F
:100FD0000E944C030E94EF0264EF71E080E090E019
:100FE0000E9465026AE070E080E090E00E94650285
:100FF00080915602882309F464C080918202909106
:101000008302DC01ED91FC910480F581E02D0995CE
:10101000811117C085E656C08091820290918302AB
:10102000DC01ED91FC910680F781E02D0995883671
:1010300009F447C0A0F0813709F443C0863709F4AA
:1010400041C08091820290918302DC01ED91FC917C
:101050000480F581E02D09958111DECFDBCF883545
:1010600071F1833671F70E949F0260934202709380
:10107000430280934402909345026CE471E08091B6
:101080008202909183020E944A032AE044E050E0E9
:1010900060E070E080918202909183020E940103DF
:1010A00063E571E080918202909183020E944A037D
:1010B00062E370E080E090E00E94650202C010925E
:1010C000560283E68093570253CF0E949F0260939B
:1010D00046027093470280934802909349022C8500
:1010E000F101208389E0280E311CAD85BE85119663
:1010F000BE87AD87BFEF8B1A9B0AAB0ABB0AE6E03F
:101100008E169104A104B10409F0BFCDAF85B88952
:101110001D91B88BAF8761E0812F0E94D40160E000
:10112000812F0E940402BFEF4B1A5B0A6B0A7B0AF5
:10113000E9E04E1651046104710409F03BCD0E94B0
:10114000A1018ACCBB27FB015527AA27880F991F2D
:10115000AA1FA41710F0A41B83955051B9F7A05DE6
:10116000AA3308F0A95DA193009779F7B111B19363
:101170001192CB010C94BC08DC01FC01672F71912A
:101180007723E1F7329704C07C916D93708362916D
:10119000AE17BF07C8F30895A1E21A2EAA1BBB1B06
:1011A000FD010DC0AA1FBB1FEE1FFF1FA217B30733
:1011B000E407F50720F0A21BB30BE40BF50B661F49
:1011C000771F881F991F1A9469F76095709580950D
:1011D00090959B01AC01BD01CF0108952F923F92E4
:1011E0004F925F926F927F928F929F92AF92BF9237
:1011F000CF92DF92EF92FF920F931F93CF93DF93E3
:10120000CDB7DEB7CA1BDB0B0FB6F894DEBF0FBE3F
:10121000CDBF09942A88398848885F846E847D848C
:101220008C849B84AA84B984C884DF80EE80FD808E
:101230000C811B81AA81B981CE0FD11D0FB6F89404
:10124000DEBF0FBECDBFED010895EE0FFF1F05906D
:10125000F491E02D0994CF93DF938230910510F43F
:1012600082E090E0E0918A02F0918B0220E030E091
:10127000C0E0D0E0309711F1408151814817590703
:10128000C0F04817590761F482819381209719F0C3
:101290009B838A832BC090938B0280938A0226C003
:1012A0002115310519F04217530718F49A01BE01B0
:1012B000DF01EF010280F381E02DDCCF2115310544
:1012C00009F1281B390B2430310590F412968D91C9
:1012D0009C9113976115710521F0FB019383828323
:1012E00004C090938B0280938A02FD01329644C021
:1012F000FD01E20FF31F81939193225031092D9349
:101300003C933AC02091880230918902232B41F40A
:1013100020910201309103013093890220938802C9
:1013200020910001309101012115310541F42DB7C3
:101330003EB74091040150910501241B350BE0910B
:101340008802F0918902E217F307A0F42E1B3F0BED
:101350002817390778F0AC014E5F5F4F2417350727
:1013600048F04E0F5F1F509389024093880281938B
:10137000919302C0E0E0F0E0CF01DF91CF910895BA
:101380000F931F93CF93DF93009709F48CC0FC0158
:1013900032971382128200918A0210918B020115FA
:1013A000110581F420813181820F931F20918802E1
:1013B000309189022817390779F5F0938902E09373
:1013C000880271C0D80140E050E0AE17BF0750F46A
:1013D00012962D913C911397AD012115310509F11C
:1013E000D901F3CF9D01DA013383228360817181BA
:1013F000860F971F8217930769F4EC0128813981C2
:10140000260F371F2E5F3F4F318320838A819B81B8
:1014100093838283452B29F4F0938B02E0938A0215
:1014200042C01396FC93EE931297ED0149915991A6
:101430009E01240F351FE217F30771F4808191811B
:10144000840F951F029611969C938E9382819381AF
:1014500013969C938E931297E0E0F0E0D8011296D9
:101460008D919C911397009719F0F8018C01F6CF9C
:101470008D919C9198012E5F3F4F820F931F209179
:101480008802309189022817390769F4309729F4C6
:1014900010928B0210928A0202C013821282109361
:1014A000890200938802DF91CF911F910F910895D7
:1014B000A0E0B0E0EEE5FAE00C94F208EC01009751
:1014C00021F4CB010E942B09B8C0FC01E60FF71FE5
:1014D0009C0122503109E217F30708F4ACC0D9018E
:1014E0000D911C91119706171707B0F005301105E3
:1014F00008F49FC0C80104978617970708F499C09D
:1015000002501109061B170B019311936D937C93E5
:10151000CF010E94C0098DC05B01A01AB10A4C0125
:10152000800E911EA0918A02B0918B0240E050E0A3
:10153000E12CF12C109709F44AC0A815B905D1F592
:101540006D907C901197630182E0C80ED11CCA1483
:10155000DB0480F1A3014A195B096A0182E0C80E2D
:10156000D11C1296BC9012971396AC91B5E0CB1695
:10157000D10440F0B282A38351834083D9016D939B
:101580007C930AC00E5F1F4FC301800F911FF901AA
:1015900091838083EB2DFA2FE114F10431F0D70110
:1015A0001396FC93EE93129744C0F0938B02E09352
:1015B0008A023FC08D919C9111974817590708F4F2
:1015C000AC017D0112960D90BC91A02DB3CF8091FE
:1015D00088029091890288159905E1F4461757070A
:1015E000C8F48091000190910101009741F48DB7FA
:1015F0009EB74091040150910501841B950BE8179B
:10160000F907C8F4F0938902E0938802F901718325
:1016100060830FC0CB010E942B097C01009759F019
:10162000A801BE010E94270BCE010E94C009C7017C
:1016300004C0CE0102C080E090E0CDB7DEB7EEE09E
:101640000C940E0981E090E0F8940C94370BFB01A8
:10165000DC0102C001900D9241505040D8F708952E
:10166000FB01DC0101900D920020E1F70895F89450
:02167000FFCFAA
:1016720000008C0280000F14150B0C1102030405EC
:1016820006071008090A000000003801B400010131
:10169200DF00F3007F015F564D44504500564D4434
:1016A20050455F003A323A00564D4450565F317C05
:1016B200315F564D4450560D0A007C00564D445041
:0C16C200435F005F564D4450430D0A008A
:107800000C94343C0C94513C0C94513C0C94513CE1
:107810000C94513C0C94513C0C94513C0C94513CB4
:107820000C94513C0C94513C0C94513C0C94513CA4
:107830000C94513C0C94513C0C94513C0C94513C94
:107840000C94513C0C94513C0C94513C0C94513C84
:107850000C94513C0C94513C0C94513C0C94513C74
:107860000C94513C0C94513C11241FBECFEFD8E036
:10787000DEBFCDBF11E0A0E0B1E0ECE9FFE702C060
:1078800005900D92A230B107D9F712E0A2E0B1E065
:1078900001C01D92AD30B107E1F70E942D3D0C945F
:1078A000CC3F0C94003C982F959595959595959582
:1078B000905D8F708A307CF0282F295A8091C0000B
:1078C00085FFFCCF9093C6008091C00085FFFCCF60
:1078D0002093C6000895282F205DF0CF982F809127
:1078E000C00085FFFCCF9093C6000895EF92FF92F1
:1078F0000F931F93EE24FF2487018091C00087FD22
:1079000017C00894E11CF11C011D111D81E4E8164B
:1079100082E4F8068FE0080780E0180770F3E09132
:107920000401F091050109958091C00087FFE9CF1E
:107930008091C6001F910F91FF90EF9008950E94D3
:10794000763C982F8091C00085FFFCCF9093C600B5
:1079500091362CF490330CF09053892F089597555D
:10796000892F08951F930E949F3C182F0E949F3CCF
:107970001295107F810F1F9108951F93182F882350
:1079800021F00E94763C1150E1F71F9108951F935A
:10799000182F0E94763C803249F0809103018F5F5E
:1079A000809303018530C1F01F9108958091C0003C
:1079B00085FFFCCF84E18093C6008091C00085FFE5
:1079C000FCCF1093C6008091C00085FFFCCF80E102
:1079D0008093C6001F910895E0910401F091050184
:1079E00009951F9108950E94763C803241F0809164
:1079F00003018F5F80930301853081F008958091AA
:107A0000C00085FFFCCF84E18093C6008091C00058
:107A100085FFFCCF80E18093C6000895E0910401CA
:107A2000F09105010995089540E951E08823A1F0FE
:107A30002D9A28EE33E0FA013197F1F721503040CA
:107A4000D1F72D9828EE33E0FA013197F1F7215064
:107A50003040D1F7815061F708953F924F925F9285
:107A60006F927F928F929F92AF92BF92CF92DF924E
:107A7000EF92FF920F931F93CF93DF93000080E16B
:107A80008093C4001092C50088E18093C10086E015
:107A90008093C2005098589A259A81E00E94143D24
:107AA00024E1F22E9EE1E92E85E9D82E0FE0C02ECA
:107AB00010E1B12EAA24A394B1E49B2EA6E58A2E50
:107AC000F2E57F2EE0E26E2E79E4572E63E5462E36
:107AD00050E5352E0E94763C8033B1F18133B9F107
:107AE000803409F46FC0813409F476C0823409F41B
:107AF00085C0853409F488C0803531F1823521F1A3
:107B0000813511F1853509F485C0863509F48DC0BC
:107B1000843609F496C0843709F403C1853709F423
:107B200072C1863709F466C0809103018F5F80932C
:107B30000301853079F6E0910401F0910501099582
:107B40000E94763C803351F60E94F33CC3CF0E94E2
:107B5000763C803249F78091C00085FFFCCFF092DF
:107B6000C6008091C00085FFFCCF9092C600809136
:107B7000C00085FFFCCF8092C6008091C00085FFC9
:107B8000FCCF7092C6008091C00085FFFCCF609250
:107B9000C6008091C00085FFFCCF5092C600809146
:107BA000C00085FFFCCF4092C6008091C00085FFD9
:107BB000FCCF3092C6008091C00085FFFCCFB09210
:107BC000C60088CF0E94763C863808F4BDCF0E945C
:107BD000763C0E94F33C7ECF0E94763C803809F4CC
:107BE0009CC0813809F40BC1823809F43CC1883942
:107BF00009F48FC080E00E94C73C6CCF84E10E94F2
:107C0000BD3C0E94F33C66CF85E00E94BD3C0E94D3
:107C1000F33C60CF0E94763C809306010E94763C44
:107C2000809307010E94F33C55CF0E94763C80333D
:107C300009F41DC183E00E94BD3C80E00E94C73C66
:107C400049CF0E94763C809309020E94763C809343
:107C5000080280910C028E7F80930C020E94763C79
:107C6000853409F415C18091080290910902892B8D
:107C700089F000E010E00E94763CF801E85FFE4FDA
:107C800080830F5F1F4F80910802909109020817AF
:107C9000190788F30E94763C803209F045CF809125
:107CA0000C0280FF01C16091060170910701660F0F
:107CB000771F7093070160930601A0910802B091AD
:107CC00009021097C9F0E8E0F1E09B01AD014E0F09
:107CD0005F1FF999FECF32BD21BD819180BDFA9A17
:107CE000F99A2F5F3F4FE417F50799F76A0F7B1F4B
:107CF00070930701609306018091C00085FFFCCF5F
:107D0000F092C6008091C00085FFFCCFB092C60003
:107D1000E1CE83E00E94C73CDDCE82E00E94C73CFA
:107D2000D9CE0E94763C809309020E94763C8093D3
:107D300008028091060190910701880F991F909386
:107D40000701809306010E94763C853409F4A6C0A1
:107D500080910C028E7F80930C020E94763C8032D0
:107D600009F0B8CE8091C00085FFFCCFF092C6002C
:107D7000609108027091090261157105B9F140E046
:107D800050E080910C02A82FA170B82FB27011C0E2
:107D9000BB2309F45CC0E0910601F0910701319624
:107DA000F0930701E09306014F5F5F4F46175707B7
:107DB000E8F4AA2369F3F999FECF209106013091E6
:107DC000070132BD21BDF89A90B58091C00085FFB2
:107DD000FCCF9093C6002F5F3F4F30930701209355
:107DE00006014F5F5F4F4617570718F38091C00099
:107DF00085FDE5CE8091C00085FFF8CFE0CE81E023
:107E00000E94C73C67CE0E94763C803209F08CCE3F
:107E10008091C00085FFFCCFF092C6008091C00029
:107E200085FFFCCFE092C6008091C00085FFFCCFAB
:107E3000D092C6008091C00085FFFCCFC092C600E2
:107E40008091C00085FFFCCFB092C60043CEE09188
:107E50000601F091070194918091C00085FFFCCF4D
:107E60009093C6009CCF80E10E94C73C33CE0E9415
:107E7000763C0E94763C182F0E94763C112309F430
:107E800083C0113009F484C08FE00E94C73C22CE29
:107E900080910C02816080930C02E5CE80910C02EF
:107EA000816080930C0259CF809107018823880F4D
:107EB000880B8A2180930B02809106019091070123
:107EC000880F991F90930701809306018091080203
:107ED00080FF09C080910802909109020196909359
:107EE000090280930802F894F999FECF1127E091D6
:107EF0000601F0910701C8E0D1E08091080290915D
:107F00000902103091F40091570001700130D9F34B
:107F100003E000935700E89500915700017001308D
:107F2000D9F301E100935700E89509901990009169
:107F3000570001700130D9F301E000935700E89534
:107F40001395103498F011270091570001700130FB
:107F5000D9F305E000935700E895009157000170B0
:107F60000130D9F301E100935700E895329602976A
:107F700009F0C7CF103011F00296E5CF112480919F
:107F8000C00085FFB9CEBCCE8EE10E94C73CA2CD19
:0C7F900085E90E94C73C9ECDF894FFCF0D
:027F9C00800063
:040000030000780081
:00000001FF